{
  "address": "0x610178dA211FEF7D417bC0e6FeD39F05609AD788",
  "abi": [
    {
      "inputs": [
        {
          "internalType": "string",
          "name": "uri",
          "type": "string"
        }
      ],
      "stateMutability": "nonpayable",
      "type": "constructor"
    },
    {
      "anonymous": false,
      "inputs": [
        {
          "indexed": true,
          "internalType": "address",
          "name": "account",
          "type": "address"
        },
        {
          "indexed": true,
          "internalType": "address",
          "name": "operator",
          "type": "address"
        },
        {
          "indexed": false,
          "internalType": "bool",
          "name": "approved",
          "type": "bool"
        }
      ],
      "name": "ApprovalForAll",
      "type": "event"
    },
    {
      "anonymous": false,
      "inputs": [
        {
          "indexed": true,
          "internalType": "address",
          "name": "operator",
          "type": "address"
        },
        {
          "indexed": true,
          "internalType": "address",
          "name": "from",
          "type": "address"
        },
        {
          "indexed": true,
          "internalType": "address",
          "name": "to",
          "type": "address"
        },
        {
          "indexed": false,
          "internalType": "uint256[]",
          "name": "ids",
          "type": "uint256[]"
        },
        {
          "indexed": false,
          "internalType": "uint256[]",
          "name": "values",
          "type": "uint256[]"
        }
      ],
      "name": "TransferBatch",
      "type": "event"
    },
    {
      "anonymous": false,
      "inputs": [
        {
          "indexed": true,
          "internalType": "address",
          "name": "operator",
          "type": "address"
        },
        {
          "indexed": true,
          "internalType": "address",
          "name": "from",
          "type": "address"
        },
        {
          "indexed": true,
          "internalType": "address",
          "name": "to",
          "type": "address"
        },
        {
          "indexed": false,
          "internalType": "uint256",
          "name": "id",
          "type": "uint256"
        },
        {
          "indexed": false,
          "internalType": "uint256",
          "name": "value",
          "type": "uint256"
        }
      ],
      "name": "TransferSingle",
      "type": "event"
    },
    {
      "anonymous": false,
      "inputs": [
        {
          "indexed": false,
          "internalType": "string",
          "name": "value",
          "type": "string"
        },
        {
          "indexed": true,
          "internalType": "uint256",
          "name": "id",
          "type": "uint256"
        }
      ],
      "name": "URI",
      "type": "event"
    },
    {
      "inputs": [
        {
          "internalType": "address",
          "name": "account",
          "type": "address"
        },
        {
          "internalType": "uint256",
          "name": "id",
          "type": "uint256"
        }
      ],
      "name": "balanceOf",
      "outputs": [
        {
          "internalType": "uint256",
          "name": "",
          "type": "uint256"
        }
      ],
      "stateMutability": "view",
      "type": "function"
    },
    {
      "inputs": [
        {
          "internalType": "address[]",
          "name": "accounts",
          "type": "address[]"
        },
        {
          "internalType": "uint256[]",
          "name": "ids",
          "type": "uint256[]"
        }
      ],
      "name": "balanceOfBatch",
      "outputs": [
        {
          "internalType": "uint256[]",
          "name": "",
          "type": "uint256[]"
        }
      ],
      "stateMutability": "view",
      "type": "function"
    },
    {
      "inputs": [
        {
          "internalType": "address",
          "name": "owner",
          "type": "address"
        },
        {
          "internalType": "uint256",
          "name": "id",
          "type": "uint256"
        },
        {
          "internalType": "uint256",
          "name": "value",
          "type": "uint256"
        }
      ],
      "name": "burn",
      "outputs": [],
      "stateMutability": "nonpayable",
      "type": "function"
    },
    {
      "inputs": [
        {
          "internalType": "address",
          "name": "owner",
          "type": "address"
        },
        {
          "internalType": "uint256[]",
          "name": "ids",
          "type": "uint256[]"
        },
        {
          "internalType": "uint256[]",
          "name": "values",
          "type": "uint256[]"
        }
      ],
      "name": "burnBatch",
      "outputs": [],
      "stateMutability": "nonpayable",
      "type": "function"
    },
    {
      "inputs": [
        {
          "internalType": "address",
          "name": "account",
          "type": "address"
        },
        {
          "internalType": "address",
          "name": "operator",
          "type": "address"
        }
      ],
      "name": "isApprovedForAll",
      "outputs": [
        {
          "internalType": "bool",
          "name": "",
          "type": "bool"
        }
      ],
      "stateMutability": "view",
      "type": "function"
    },
    {
      "inputs": [
        {
          "internalType": "address",
          "name": "to",
          "type": "address"
        },
        {
          "internalType": "uint256",
          "name": "id",
          "type": "uint256"
        },
        {
          "internalType": "uint256",
          "name": "value",
          "type": "uint256"
        },
        {
          "internalType": "bytes",
          "name": "data",
          "type": "bytes"
        }
      ],
      "name": "mint",
      "outputs": [],
      "stateMutability": "nonpayable",
      "type": "function"
    },
    {
      "inputs": [
        {
          "internalType": "address",
          "name": "to",
          "type": "address"
        },
        {
          "internalType": "uint256[]",
          "name": "ids",
          "type": "uint256[]"
        },
        {
          "internalType": "uint256[]",
          "name": "values",
          "type": "uint256[]"
        },
        {
          "internalType": "bytes",
          "name": "data",
          "type": "bytes"
        }
      ],
      "name": "mintBatch",
      "outputs": [],
      "stateMutability": "nonpayable",
      "type": "function"
    },
    {
      "inputs": [
        {
          "internalType": "address",
          "name": "from",
          "type": "address"
        },
        {
          "internalType": "address",
          "name": "to",
          "type": "address"
        },
        {
          "internalType": "uint256[]",
          "name": "ids",
          "type": "uint256[]"
        },
        {
          "internalType": "uint256[]",
          "name": "amounts",
          "type": "uint256[]"
        },
        {
          "internalType": "bytes",
          "name": "data",
          "type": "bytes"
        }
      ],
      "name": "safeBatchTransferFrom",
      "outputs": [],
      "stateMutability": "nonpayable",
      "type": "function"
    },
    {
      "inputs": [
        {
          "internalType": "address",
          "name": "from",
          "type": "address"
        },
        {
          "internalType": "address",
          "name": "to",
          "type": "address"
        },
        {
          "internalType": "uint256",
          "name": "id",
          "type": "uint256"
        },
        {
          "internalType": "uint256",
          "name": "amount",
          "type": "uint256"
        },
        {
          "internalType": "bytes",
          "name": "data",
          "type": "bytes"
        }
      ],
      "name": "safeTransferFrom",
      "outputs": [],
      "stateMutability": "nonpayable",
      "type": "function"
    },
    {
      "inputs": [
        {
          "internalType": "address",
          "name": "operator",
          "type": "address"
        },
        {
          "internalType": "bool",
          "name": "approved",
          "type": "bool"
        }
      ],
      "name": "setApprovalForAll",
      "outputs": [],
      "stateMutability": "nonpayable",
      "type": "function"
    },
    {
      "inputs": [
        {
          "internalType": "string",
          "name": "newuri",
          "type": "string"
        }
      ],
      "name": "setURI",
      "outputs": [],
      "stateMutability": "nonpayable",
      "type": "function"
    },
    {
      "inputs": [
        {
          "internalType": "bytes4",
          "name": "interfaceId",
          "type": "bytes4"
        }
      ],
      "name": "supportsInterface",
      "outputs": [
        {
          "internalType": "bool",
          "name": "",
          "type": "bool"
        }
      ],
      "stateMutability": "view",
      "type": "function"
    },
    {
      "inputs": [
        {
          "internalType": "uint256",
          "name": "",
          "type": "uint256"
        }
      ],
      "name": "uri",
      "outputs": [
        {
          "internalType": "string",
          "name": "",
          "type": "string"
        }
      ],
      "stateMutability": "view",
      "type": "function"
    }
  ],
  "transactionHash": "0xdb534a0878e29bf8f4ad39fc5fc41cbc964e46209aacf1a087f29a53b4d19d6b",
  "args": [
    "www.google.com"
  ],
  "numDeployments": 1,
  "solcInputHash": "fc266c6df96ec4eb70316f09925da9d9",
  "bytecode": "0x60806040523480156200001157600080fd5b50604051620038f0380380620038f08339818101604052810190620000379190620002ba565b8062000049816200005160201b60201c565b505062000370565b8060029080519060200190620000699291906200006d565b5050565b8280546200007b906200033a565b90600052602060002090601f0160209004810192826200009f5760008555620000eb565b82601f10620000ba57805160ff1916838001178555620000eb565b82800160010185558215620000eb579182015b82811115620000ea578251825591602001919060010190620000cd565b5b509050620000fa9190620000fe565b5090565b5b8082111562000119576000816000905550600101620000ff565b5090565b6000604051905090565b600080fd5b600080fd5b600080fd5b600080fd5b6000601f19601f8301169050919050565b7f4e487b7100000000000000000000000000000000000000000000000000000000600052604160045260246000fd5b62000186826200013b565b810181811067ffffffffffffffff82111715620001a857620001a76200014c565b5b80604052505050565b6000620001bd6200011d565b9050620001cb82826200017b565b919050565b600067ffffffffffffffff821115620001ee57620001ed6200014c565b5b620001f9826200013b565b9050602081019050919050565b60005b838110156200022657808201518184015260208101905062000209565b8381111562000236576000848401525b50505050565b6000620002536200024d84620001d0565b620001b1565b90508281526020810184848401111562000272576200027162000136565b5b6200027f84828562000206565b509392505050565b600082601f8301126200029f576200029e62000131565b5b8151620002b18482602086016200023c565b91505092915050565b600060208284031215620002d357620002d262000127565b5b600082015167ffffffffffffffff811115620002f457620002f36200012c565b5b620003028482850162000287565b91505092915050565b7f4e487b7100000000000000000000000000000000000000000000000000000000600052602260045260246000fd5b600060028204905060018216806200035357607f821691505b602082108114156200036a57620003696200030b565b5b50919050565b61357080620003806000396000f3fe608060405234801561001057600080fd5b50600436106100ce5760003560e01c80634e1273f41161008c578063a22cb46511610066578063a22cb4651461021f578063e985e9c51461023b578063f242432a1461026b578063f5298aca14610287576100ce565b80634e1273f4146101b75780636b20c454146101e7578063731133e914610203576100ce565b8062fdd58e146100d357806301ffc9a71461010357806302fe5305146101335780630e89341c1461014f5780631f7fdffa1461017f5780632eb2c2d61461019b575b600080fd5b6100ed60048036038101906100e89190611ea8565b6102a3565b6040516100fa9190611ef7565b60405180910390f35b61011d60048036038101906101189190611f6a565b61036c565b60405161012a9190611fb2565b60405180910390f35b61014d60048036038101906101489190612113565b61044e565b005b6101696004803603810190610164919061215c565b61045a565b6040516101769190612211565b60405180910390f35b6101996004803603810190610194919061239c565b6104ee565b005b6101b560048036038101906101b09190612457565b610500565b005b6101d160048036038101906101cc91906125e9565b6105a1565b6040516101de919061271f565b60405180910390f35b61020160048036038101906101fc9190612741565b6106ba565b005b61021d600480360381019061021891906127cc565b6106ca565b005b6102396004803603810190610234919061287b565b6106dc565b005b610255600480360381019061025091906128bb565b6106f2565b6040516102629190611fb2565b60405180910390f35b610285600480360381019061028091906128fb565b610786565b005b6102a1600480360381019061029c9190612992565b610827565b005b60008073ffffffffffffffffffffffffffffffffffffffff168373ffffffffffffffffffffffffffffffffffffffff161415610314576040517f08c379a000000000000000000000000000000000000000000000000000000000815260040161030b90612a57565b60405180910390fd5b60008083815260200190815260200160002060008473ffffffffffffffffffffffffffffffffffffffff1673ffffffffffffffffffffffffffffffffffffffff16815260200190815260200160002054905092915050565b60007fd9b67a26000000000000000000000000000000000000000000000000000000007bffffffffffffffffffffffffffffffffffffffffffffffffffffffff1916827bffffffffffffffffffffffffffffffffffffffffffffffffffffffff1916148061043757507f0e89341c000000000000000000000000000000000000000000000000000000007bffffffffffffffffffffffffffffffffffffffffffffffffffffffff1916827bffffffffffffffffffffffffffffffffffffffffffffffffffffffff1916145b80610447575061044682610837565b5b9050919050565b610457816108a1565b50565b60606002805461046990612aa6565b80601f016020809104026020016040519081016040528092919081815260200182805461049590612aa6565b80156104e25780601f106104b7576101008083540402835291602001916104e2565b820191906000526020600020905b8154815290600101906020018083116104c557829003601f168201915b50505050509050919050565b6104fa848484846108bb565b50505050565b610508610ae8565b73ffffffffffffffffffffffffffffffffffffffff168573ffffffffffffffffffffffffffffffffffffffff16148061054e575061054d85610548610ae8565b6106f2565b5b61058d576040517f08c379a000000000000000000000000000000000000000000000000000000000815260040161058490612b4a565b60405180910390fd5b61059a8585858585610af0565b5050505050565b606081518351146105e7576040517f08c379a00000000000000000000000000000000000000000000000000000000081526004016105de90612bdc565b60405180910390fd5b6000835167ffffffffffffffff81111561060457610603611fe8565b5b6040519080825280602002602001820160405280156106325781602001602082028036833780820191505090505b50905060005b84518110156106af5761067f85828151811061065757610656612bfc565b5b602002602001015185838151811061067257610671612bfc565b5b60200260200101516102a3565b82828151811061069257610691612bfc565b5b602002602001018181525050806106a890612c5a565b9050610638565b508091505092915050565b6106c5838383610e12565b505050565b6106d6848484846110e1565b50505050565b6106ee6106e7610ae8565b8383611292565b5050565b6000600160008473ffffffffffffffffffffffffffffffffffffffff1673ffffffffffffffffffffffffffffffffffffffff16815260200190815260200160002060008373ffffffffffffffffffffffffffffffffffffffff1673ffffffffffffffffffffffffffffffffffffffff16815260200190815260200160002060009054906101000a900460ff16905092915050565b61078e610ae8565b73ffffffffffffffffffffffffffffffffffffffff168573ffffffffffffffffffffffffffffffffffffffff1614806107d457506107d3856107ce610ae8565b6106f2565b5b610813576040517f08c379a000000000000000000000000000000000000000000000000000000000815260040161080a90612d15565b60405180910390fd5b61082085858585856113ff565b5050505050565b61083283838361169b565b505050565b60007f01ffc9a7000000000000000000000000000000000000000000000000000000007bffffffffffffffffffffffffffffffffffffffffffffffffffffffff1916827bffffffffffffffffffffffffffffffffffffffffffffffffffffffff1916149050919050565b80600290805190602001906108b7929190611d5d565b5050565b600073ffffffffffffffffffffffffffffffffffffffff168473ffffffffffffffffffffffffffffffffffffffff16141561092b576040517f08c379a000000000000000000000000000000000000000000000000000000000815260040161092290612da7565b60405180910390fd5b815183511461096f576040517f08c379a000000000000000000000000000000000000000000000000000000000815260040161096690612e39565b60405180910390fd5b6000610979610ae8565b905061098a816000878787876118e2565b60005b8451811015610a43578381815181106109a9576109a8612bfc565b5b60200260200101516000808784815181106109c7576109c6612bfc565b5b6020026020010151815260200190815260200160002060008873ffffffffffffffffffffffffffffffffffffffff1673ffffffffffffffffffffffffffffffffffffffff1681526020019081526020016000206000828254610a299190612e59565b925050819055508080610a3b90612c5a565b91505061098d565b508473ffffffffffffffffffffffffffffffffffffffff16600073ffffffffffffffffffffffffffffffffffffffff168273ffffffffffffffffffffffffffffffffffffffff167f4a39dc06d4c0dbc64b70af90fd698a233a518aa5d07e595d983b8c0526c8f7fb8787604051610abb929190612eaf565b60405180910390a4610ad2816000878787876118ea565b610ae1816000878787876118f2565b5050505050565b600033905090565b8151835114610b34576040517f08c379a0000000000000000000000000000000000000000000000000000000008152600401610b2b90612e39565b60405180910390fd5b600073ffffffffffffffffffffffffffffffffffffffff168473ffffffffffffffffffffffffffffffffffffffff161415610ba4576040517f08c379a0000000000000000000000000000000000000000000000000000000008152600401610b9b90612f58565b60405180910390fd5b6000610bae610ae8565b9050610bbe8187878787876118e2565b60005b8451811015610d6f576000858281518110610bdf57610bde612bfc565b5b602002602001015190506000858381518110610bfe57610bfd612bfc565b5b60200260200101519050600080600084815260200190815260200160002060008b73ffffffffffffffffffffffffffffffffffffffff1673ffffffffffffffffffffffffffffffffffffffff16815260200190815260200160002054905081811015610c9f576040517f08c379a0000000000000000000000000000000000000000000000000000000008152600401610c9690612fea565b60405180910390fd5b81810360008085815260200190815260200160002060008c73ffffffffffffffffffffffffffffffffffffffff1673ffffffffffffffffffffffffffffffffffffffff168152602001908152602001600020819055508160008085815260200190815260200160002060008b73ffffffffffffffffffffffffffffffffffffffff1673ffffffffffffffffffffffffffffffffffffffff1681526020019081526020016000206000828254610d549190612e59565b9250508190555050505080610d6890612c5a565b9050610bc1565b508473ffffffffffffffffffffffffffffffffffffffff168673ffffffffffffffffffffffffffffffffffffffff168273ffffffffffffffffffffffffffffffffffffffff167f4a39dc06d4c0dbc64b70af90fd698a233a518aa5d07e595d983b8c0526c8f7fb8787604051610de6929190612eaf565b60405180910390a4610dfc8187878787876118ea565b610e0a8187878787876118f2565b505050505050565b600073ffffffffffffffffffffffffffffffffffffffff168373ffffffffffffffffffffffffffffffffffffffff161415610e82576040517f08c379a0000000000000000000000000000000000000000000000000000000008152600401610e799061307c565b60405180910390fd5b8051825114610ec6576040517f08c379a0000000000000000000000000000000000000000000000000000000008152600401610ebd90612e39565b60405180910390fd5b6000610ed0610ae8565b9050610ef0818560008686604051806020016040528060008152506118e2565b60005b835181101561103d576000848281518110610f1157610f10612bfc565b5b602002602001015190506000848381518110610f3057610f2f612bfc565b5b60200260200101519050600080600084815260200190815260200160002060008973ffffffffffffffffffffffffffffffffffffffff1673ffffffffffffffffffffffffffffffffffffffff16815260200190815260200160002054905081811015610fd1576040517f08c379a0000000000000000000000000000000000000000000000000000000008152600401610fc89061310e565b60405180910390fd5b81810360008085815260200190815260200160002060008a73ffffffffffffffffffffffffffffffffffffffff1673ffffffffffffffffffffffffffffffffffffffff16815260200190815260200160002081905550505050808061103590612c5a565b915050610ef3565b50600073ffffffffffffffffffffffffffffffffffffffff168473ffffffffffffffffffffffffffffffffffffffff168273ffffffffffffffffffffffffffffffffffffffff167f4a39dc06d4c0dbc64b70af90fd698a233a518aa5d07e595d983b8c0526c8f7fb86866040516110b5929190612eaf565b60405180910390a46110db818560008686604051806020016040528060008152506118ea565b50505050565b600073ffffffffffffffffffffffffffffffffffffffff168473ffffffffffffffffffffffffffffffffffffffff161415611151576040517f08c379a000000000000000000000000000000000000000000000000000000000815260040161114890612da7565b60405180910390fd5b600061115b610ae8565b9050600061116885611ad9565b9050600061117585611ad9565b9050611186836000898585896118e2565b8460008088815260200190815260200160002060008973ffffffffffffffffffffffffffffffffffffffff1673ffffffffffffffffffffffffffffffffffffffff16815260200190815260200160002060008282546111e59190612e59565b925050819055508673ffffffffffffffffffffffffffffffffffffffff16600073ffffffffffffffffffffffffffffffffffffffff168473ffffffffffffffffffffffffffffffffffffffff167fc3d58168c5ae7397731d063d5bbf3d657854427343f4c083240f7aacaa2d0f62898960405161126392919061312e565b60405180910390a461127a836000898585896118ea565b61128983600089898989611b53565b50505050505050565b8173ffffffffffffffffffffffffffffffffffffffff168373ffffffffffffffffffffffffffffffffffffffff161415611301576040517f08c379a00000000000000000000000000000000000000000000000000000000081526004016112f8906131c9565b60405180910390fd5b80600160008573ffffffffffffffffffffffffffffffffffffffff1673ffffffffffffffffffffffffffffffffffffffff16815260200190815260200160002060008473ffffffffffffffffffffffffffffffffffffffff1673ffffffffffffffffffffffffffffffffffffffff16815260200190815260200160002060006101000a81548160ff0219169083151502179055508173ffffffffffffffffffffffffffffffffffffffff168373ffffffffffffffffffffffffffffffffffffffff167f17307eab39ab6107e8899845ad3d59bd9653f200f220920489ca2b5937696c31836040516113f29190611fb2565b60405180910390a3505050565b600073ffffffffffffffffffffffffffffffffffffffff168473ffffffffffffffffffffffffffffffffffffffff16141561146f576040517f08c379a000000000000000000000000000000000000000000000000000000000815260040161146690612f58565b60405180910390fd5b6000611479610ae8565b9050600061148685611ad9565b9050600061149385611ad9565b90506114a38389898585896118e2565b600080600088815260200190815260200160002060008a73ffffffffffffffffffffffffffffffffffffffff1673ffffffffffffffffffffffffffffffffffffffff1681526020019081526020016000205490508581101561153a576040517f08c379a000000000000000000000000000000000000000000000000000000000815260040161153190612fea565b60405180910390fd5b85810360008089815260200190815260200160002060008b73ffffffffffffffffffffffffffffffffffffffff1673ffffffffffffffffffffffffffffffffffffffff168152602001908152602001600020819055508560008089815260200190815260200160002060008a73ffffffffffffffffffffffffffffffffffffffff1673ffffffffffffffffffffffffffffffffffffffff16815260200190815260200160002060008282546115ef9190612e59565b925050819055508773ffffffffffffffffffffffffffffffffffffffff168973ffffffffffffffffffffffffffffffffffffffff168573ffffffffffffffffffffffffffffffffffffffff167fc3d58168c5ae7397731d063d5bbf3d657854427343f4c083240f7aacaa2d0f628a8a60405161166c92919061312e565b60405180910390a4611682848a8a86868a6118ea565b611690848a8a8a8a8a611b53565b505050505050505050565b600073ffffffffffffffffffffffffffffffffffffffff168373ffffffffffffffffffffffffffffffffffffffff16141561170b576040517f08c379a00000000000000000000000000000000000000000000000000000000081526004016117029061307c565b60405180910390fd5b6000611715610ae8565b9050600061172284611ad9565b9050600061172f84611ad9565b905061174f838760008585604051806020016040528060008152506118e2565b600080600087815260200190815260200160002060008873ffffffffffffffffffffffffffffffffffffffff1673ffffffffffffffffffffffffffffffffffffffff168152602001908152602001600020549050848110156117e6576040517f08c379a00000000000000000000000000000000000000000000000000000000081526004016117dd9061310e565b60405180910390fd5b84810360008088815260200190815260200160002060008973ffffffffffffffffffffffffffffffffffffffff1673ffffffffffffffffffffffffffffffffffffffff16815260200190815260200160002081905550600073ffffffffffffffffffffffffffffffffffffffff168773ffffffffffffffffffffffffffffffffffffffff168573ffffffffffffffffffffffffffffffffffffffff167fc3d58168c5ae7397731d063d5bbf3d657854427343f4c083240f7aacaa2d0f6289896040516118b392919061312e565b60405180910390a46118d9848860008686604051806020016040528060008152506118ea565b50505050505050565b505050505050565b505050505050565b6119118473ffffffffffffffffffffffffffffffffffffffff16611d3a565b15611ad1578373ffffffffffffffffffffffffffffffffffffffff1663bc197c8187878686866040518663ffffffff1660e01b815260040161195795949392919061324d565b602060405180830381600087803b15801561197157600080fd5b505af19250505080156119a257506040513d601f19601f8201168201806040525081019061199f91906132ca565b60015b611a48576119ae613304565b806308c379a01415611a0b57506119c3613326565b806119ce5750611a0d565b806040517f08c379a0000000000000000000000000000000000000000000000000000000008152600401611a029190612211565b60405180910390fd5b505b6040517f08c379a0000000000000000000000000000000000000000000000000000000008152600401611a3f9061342e565b60405180910390fd5b63bc197c8160e01b7bffffffffffffffffffffffffffffffffffffffffffffffffffffffff1916817bffffffffffffffffffffffffffffffffffffffffffffffffffffffff191614611acf576040517f08c379a0000000000000000000000000000000000000000000000000000000008152600401611ac6906134c0565b60405180910390fd5b505b505050505050565b60606000600167ffffffffffffffff811115611af857611af7611fe8565b5b604051908082528060200260200182016040528015611b265781602001602082028036833780820191505090505b5090508281600081518110611b3e57611b3d612bfc565b5b60200260200101818152505080915050919050565b611b728473ffffffffffffffffffffffffffffffffffffffff16611d3a565b15611d32578373ffffffffffffffffffffffffffffffffffffffff1663f23a6e6187878686866040518663ffffffff1660e01b8152600401611bb89594939291906134e0565b602060405180830381600087803b158015611bd257600080fd5b505af1925050508015611c0357506040513d601f19601f82011682018060405250810190611c0091906132ca565b60015b611ca957611c0f613304565b806308c379a01415611c6c5750611c24613326565b80611c2f5750611c6e565b806040517f08c379a0000000000000000000000000000000000000000000000000000000008152600401611c639190612211565b60405180910390fd5b505b6040517f08c379a0000000000000000000000000000000000000000000000000000000008152600401611ca09061342e565b60405180910390fd5b63f23a6e6160e01b7bffffffffffffffffffffffffffffffffffffffffffffffffffffffff1916817bffffffffffffffffffffffffffffffffffffffffffffffffffffffff191614611d30576040517f08c379a0000000000000000000000000000000000000000000000000000000008152600401611d27906134c0565b60405180910390fd5b505b505050505050565b6000808273ffffffffffffffffffffffffffffffffffffffff163b119050919050565b828054611d6990612aa6565b90600052602060002090601f016020900481019282611d8b5760008555611dd2565b82601f10611da457805160ff1916838001178555611dd2565b82800160010185558215611dd2579182015b82811115611dd1578251825591602001919060010190611db6565b5b509050611ddf9190611de3565b5090565b5b80821115611dfc576000816000905550600101611de4565b5090565b6000604051905090565b600080fd5b600080fd5b600073ffffffffffffffffffffffffffffffffffffffff82169050919050565b6000611e3f82611e14565b9050919050565b611e4f81611e34565b8114611e5a57600080fd5b50565b600081359050611e6c81611e46565b92915050565b6000819050919050565b611e8581611e72565b8114611e9057600080fd5b50565b600081359050611ea281611e7c565b92915050565b60008060408385031215611ebf57611ebe611e0a565b5b6000611ecd85828601611e5d565b9250506020611ede85828601611e93565b9150509250929050565b611ef181611e72565b82525050565b6000602082019050611f0c6000830184611ee8565b92915050565b60007fffffffff0000000000000000000000000000000000000000000000000000000082169050919050565b611f4781611f12565b8114611f5257600080fd5b50565b600081359050611f6481611f3e565b92915050565b600060208284031215611f8057611f7f611e0a565b5b6000611f8e84828501611f55565b91505092915050565b60008115159050919050565b611fac81611f97565b82525050565b6000602082019050611fc76000830184611fa3565b92915050565b600080fd5b600080fd5b6000601f19601f8301169050919050565b7f4e487b7100000000000000000000000000000000000000000000000000000000600052604160045260246000fd5b61202082611fd7565b810181811067ffffffffffffffff8211171561203f5761203e611fe8565b5b80604052505050565b6000612052611e00565b905061205e8282612017565b919050565b600067ffffffffffffffff82111561207e5761207d611fe8565b5b61208782611fd7565b9050602081019050919050565b82818337600083830152505050565b60006120b66120b184612063565b612048565b9050828152602081018484840111156120d2576120d1611fd2565b5b6120dd848285612094565b509392505050565b600082601f8301126120fa576120f9611fcd565b5b813561210a8482602086016120a3565b91505092915050565b60006020828403121561212957612128611e0a565b5b600082013567ffffffffffffffff81111561214757612146611e0f565b5b612153848285016120e5565b91505092915050565b60006020828403121561217257612171611e0a565b5b600061218084828501611e93565b91505092915050565b600081519050919050565b600082825260208201905092915050565b60005b838110156121c35780820151818401526020810190506121a8565b838111156121d2576000848401525b50505050565b60006121e382612189565b6121ed8185612194565b93506121fd8185602086016121a5565b61220681611fd7565b840191505092915050565b6000602082019050818103600083015261222b81846121d8565b905092915050565b600067ffffffffffffffff82111561224e5761224d611fe8565b5b602082029050602081019050919050565b600080fd5b600061227761227284612233565b612048565b9050808382526020820190506020840283018581111561229a5761229961225f565b5b835b818110156122c357806122af8882611e93565b84526020840193505060208101905061229c565b5050509392505050565b600082601f8301126122e2576122e1611fcd565b5b81356122f2848260208601612264565b91505092915050565b600067ffffffffffffffff82111561231657612315611fe8565b5b61231f82611fd7565b9050602081019050919050565b600061233f61233a846122fb565b612048565b90508281526020810184848401111561235b5761235a611fd2565b5b612366848285612094565b509392505050565b600082601f83011261238357612382611fcd565b5b813561239384826020860161232c565b91505092915050565b600080600080608085870312156123b6576123b5611e0a565b5b60006123c487828801611e5d565b945050602085013567ffffffffffffffff8111156123e5576123e4611e0f565b5b6123f1878288016122cd565b935050604085013567ffffffffffffffff81111561241257612411611e0f565b5b61241e878288016122cd565b925050606085013567ffffffffffffffff81111561243f5761243e611e0f565b5b61244b8782880161236e565b91505092959194509250565b600080600080600060a0868803121561247357612472611e0a565b5b600061248188828901611e5d565b955050602061249288828901611e5d565b945050604086013567ffffffffffffffff8111156124b3576124b2611e0f565b5b6124bf888289016122cd565b935050606086013567ffffffffffffffff8111156124e0576124df611e0f565b5b6124ec888289016122cd565b925050608086013567ffffffffffffffff81111561250d5761250c611e0f565b5b6125198882890161236e565b9150509295509295909350565b600067ffffffffffffffff82111561254157612540611fe8565b5b602082029050602081019050919050565b600061256561256084612526565b612048565b905080838252602082019050602084028301858111156125885761258761225f565b5b835b818110156125b1578061259d8882611e5d565b84526020840193505060208101905061258a565b5050509392505050565b600082601f8301126125d0576125cf611fcd565b5b81356125e0848260208601612552565b91505092915050565b60008060408385031215612600576125ff611e0a565b5b600083013567ffffffffffffffff81111561261e5761261d611e0f565b5b61262a858286016125bb565b925050602083013567ffffffffffffffff81111561264b5761264a611e0f565b5b612657858286016122cd565b9150509250929050565b600081519050919050565b600082825260208201905092915050565b6000819050602082019050919050565b61269681611e72565b82525050565b60006126a8838361268d565b60208301905092915050565b6000602082019050919050565b60006126cc82612661565b6126d6818561266c565b93506126e18361267d565b8060005b838110156127125781516126f9888261269c565b9750612704836126b4565b9250506001810190506126e5565b5085935050505092915050565b6000602082019050818103600083015261273981846126c1565b905092915050565b60008060006060848603121561275a57612759611e0a565b5b600061276886828701611e5d565b935050602084013567ffffffffffffffff81111561278957612788611e0f565b5b612795868287016122cd565b925050604084013567ffffffffffffffff8111156127b6576127b5611e0f565b5b6127c2868287016122cd565b9150509250925092565b600080600080608085870312156127e6576127e5611e0a565b5b60006127f487828801611e5d565b945050602061280587828801611e93565b935050604061281687828801611e93565b925050606085013567ffffffffffffffff81111561283757612836611e0f565b5b6128438782880161236e565b91505092959194509250565b61285881611f97565b811461286357600080fd5b50565b6000813590506128758161284f565b92915050565b6000806040838503121561289257612891611e0a565b5b60006128a085828601611e5d565b92505060206128b185828601612866565b9150509250929050565b600080604083850312156128d2576128d1611e0a565b5b60006128e085828601611e5d565b92505060206128f185828601611e5d565b9150509250929050565b600080600080600060a0868803121561291757612916611e0a565b5b600061292588828901611e5d565b955050602061293688828901611e5d565b945050604061294788828901611e93565b935050606061295888828901611e93565b925050608086013567ffffffffffffffff81111561297957612978611e0f565b5b6129858882890161236e565b9150509295509295909350565b6000806000606084860312156129ab576129aa611e0a565b5b60006129b986828701611e5d565b93505060206129ca86828701611e93565b92505060406129db86828701611e93565b9150509250925092565b7f455243313135353a2062616c616e636520717565727920666f7220746865207a60008201527f65726f2061646472657373000000000000000000000000000000000000000000602082015250565b6000612a41602b83612194565b9150612a4c826129e5565b604082019050919050565b60006020820190508181036000830152612a7081612a34565b9050919050565b7f4e487b7100000000000000000000000000000000000000000000000000000000600052602260045260246000fd5b60006002820490506001821680612abe57607f821691505b60208210811415612ad257612ad1612a77565b5b50919050565b7f455243313135353a207472616e736665722063616c6c6572206973206e6f742060008201527f6f776e6572206e6f7220617070726f7665640000000000000000000000000000602082015250565b6000612b34603283612194565b9150612b3f82612ad8565b604082019050919050565b60006020820190508181036000830152612b6381612b27565b9050919050565b7f455243313135353a206163636f756e747320616e6420696473206c656e67746860008201527f206d69736d617463680000000000000000000000000000000000000000000000602082015250565b6000612bc6602983612194565b9150612bd182612b6a565b604082019050919050565b60006020820190508181036000830152612bf581612bb9565b9050919050565b7f4e487b7100000000000000000000000000000000000000000000000000000000600052603260045260246000fd5b7f4e487b7100000000000000000000000000000000000000000000000000000000600052601160045260246000fd5b6000612c6582611e72565b91507fffffffffffffffffffffffffffffffffffffffffffffffffffffffffffffffff821415612c9857612c97612c2b565b5b600182019050919050565b7f455243313135353a2063616c6c6572206973206e6f74206f776e6572206e6f7260008201527f20617070726f7665640000000000000000000000000000000000000000000000602082015250565b6000612cff602983612194565b9150612d0a82612ca3565b604082019050919050565b60006020820190508181036000830152612d2e81612cf2565b9050919050565b7f455243313135353a206d696e7420746f20746865207a65726f2061646472657360008201527f7300000000000000000000000000000000000000000000000000000000000000602082015250565b6000612d91602183612194565b9150612d9c82612d35565b604082019050919050565b60006020820190508181036000830152612dc081612d84565b9050919050565b7f455243313135353a2069647320616e6420616d6f756e7473206c656e6774682060008201527f6d69736d61746368000000000000000000000000000000000000000000000000602082015250565b6000612e23602883612194565b9150612e2e82612dc7565b604082019050919050565b60006020820190508181036000830152612e5281612e16565b9050919050565b6000612e6482611e72565b9150612e6f83611e72565b9250827fffffffffffffffffffffffffffffffffffffffffffffffffffffffffffffffff03821115612ea457612ea3612c2b565b5b828201905092915050565b60006040820190508181036000830152612ec981856126c1565b90508181036020830152612edd81846126c1565b90509392505050565b7f455243313135353a207472616e7366657220746f20746865207a65726f20616460008201527f6472657373000000000000000000000000000000000000000000000000000000602082015250565b6000612f42602583612194565b9150612f4d82612ee6565b604082019050919050565b60006020820190508181036000830152612f7181612f35565b9050919050565b7f455243313135353a20696e73756666696369656e742062616c616e636520666f60008201527f72207472616e7366657200000000000000000000000000000000000000000000602082015250565b6000612fd4602a83612194565b9150612fdf82612f78565b604082019050919050565b6000602082019050818103600083015261300381612fc7565b9050919050565b7f455243313135353a206275726e2066726f6d20746865207a65726f206164647260008201527f6573730000000000000000000000000000000000000000000000000000000000602082015250565b6000613066602383612194565b91506130718261300a565b604082019050919050565b6000602082019050818103600083015261309581613059565b9050919050565b7f455243313135353a206275726e20616d6f756e7420657863656564732062616c60008201527f616e636500000000000000000000000000000000000000000000000000000000602082015250565b60006130f8602483612194565b91506131038261309c565b604082019050919050565b60006020820190508181036000830152613127816130eb565b9050919050565b60006040820190506131436000830185611ee8565b6131506020830184611ee8565b9392505050565b7f455243313135353a2073657474696e6720617070726f76616c2073746174757360008201527f20666f722073656c660000000000000000000000000000000000000000000000602082015250565b60006131b3602983612194565b91506131be82613157565b604082019050919050565b600060208201905081810360008301526131e2816131a6565b9050919050565b6131f281611e34565b82525050565b600081519050919050565b600082825260208201905092915050565b600061321f826131f8565b6132298185613203565b93506132398185602086016121a5565b61324281611fd7565b840191505092915050565b600060a08201905061326260008301886131e9565b61326f60208301876131e9565b818103604083015261328181866126c1565b9050818103606083015261329581856126c1565b905081810360808301526132a98184613214565b90509695505050505050565b6000815190506132c481611f3e565b92915050565b6000602082840312156132e0576132df611e0a565b5b60006132ee848285016132b5565b91505092915050565b60008160e01c9050919050565b600060033d11156133235760046000803e6133206000516132f7565b90505b90565b600060443d1015613336576133b9565b61333e611e00565b60043d036004823e80513d602482011167ffffffffffffffff821117156133665750506133b9565b808201805167ffffffffffffffff81111561338457505050506133b9565b80602083010160043d0385018111156133a15750505050506133b9565b6133b082602001850186612017565b82955050505050505b90565b7f455243313135353a207472616e7366657220746f206e6f6e204552433131353560008201527f526563656976657220696d706c656d656e746572000000000000000000000000602082015250565b6000613418603483612194565b9150613423826133bc565b604082019050919050565b600060208201905081810360008301526134478161340b565b9050919050565b7f455243313135353a204552433131353552656365697665722072656a6563746560008201527f6420746f6b656e73000000000000000000000000000000000000000000000000602082015250565b60006134aa602883612194565b91506134b58261344e565b604082019050919050565b600060208201905081810360008301526134d98161349d565b9050919050565b600060a0820190506134f560008301886131e9565b61350260208301876131e9565b61350f6040830186611ee8565b61351c6060830185611ee8565b818103608083015261352e8184613214565b9050969550505050505056fea2646970667358221220da8a918eea256cadeb5474ef5866268b6f22479afc863c746f0e6f1b92596d4864736f6c63430008080033",
  "devdoc": {
    "kind": "dev",
    "methods": {
      "balanceOf(address,uint256)": {
        "details": "See {IERC1155-balanceOf}. Requirements: - `account` cannot be the zero address."
      },
      "balanceOfBatch(address[],uint256[])": {
        "details": "See {IERC1155-balanceOfBatch}. Requirements: - `accounts` and `ids` must have the same length."
      },
      "isApprovedForAll(address,address)": {
        "details": "See {IERC1155-isApprovedForAll}."
      },
      "safeBatchTransferFrom(address,address,uint256[],uint256[],bytes)": {
        "details": "See {IERC1155-safeBatchTransferFrom}."
      },
      "safeTransferFrom(address,address,uint256,uint256,bytes)": {
        "details": "See {IERC1155-safeTransferFrom}."
      },
      "setApprovalForAll(address,bool)": {
        "details": "See {IERC1155-setApprovalForAll}."
      },
      "supportsInterface(bytes4)": {
        "details": "See {IERC165-supportsInterface}."
      },
      "uri(uint256)": {
        "details": "See {IERC1155MetadataURI-uri}. This implementation returns the same URI for *all* token types. It relies on the token type ID substitution mechanism https://eips.ethereum.org/EIPS/eip-1155#metadata[defined in the EIP]. Clients calling this function must replace the `\\{id\\}` substring with the actual token type ID."
      }
    },
    "title": "ERC1155Mock This mock just publicizes internal functions for testing purposes",
    "version": 1
  },
  "userdoc": {
    "kind": "user",
    "methods": {},
    "version": 1
  },
  "storageLayout": {
    "storage": [
      {
        "astId": 130,
        "contract": "contracts/ERC1155Mock.sol:ERC1155Mock",
        "label": "_balances",
        "offset": 0,
        "slot": "0",
        "type": "t_mapping(t_uint256,t_mapping(t_address,t_uint256))"
      },
      {
        "astId": 136,
        "contract": "contracts/ERC1155Mock.sol:ERC1155Mock",
        "label": "_operatorApprovals",
        "offset": 0,
        "slot": "1",
        "type": "t_mapping(t_address,t_mapping(t_address,t_bool))"
      },
      {
        "astId": 138,
        "contract": "contracts/ERC1155Mock.sol:ERC1155Mock",
        "label": "_uri",
        "offset": 0,
        "slot": "2",
        "type": "t_string_storage"
      }
    ],
    "types": {
      "t_address": {
        "encoding": "inplace",
        "label": "address",
        "numberOfBytes": "20"
      },
      "t_bool": {
        "encoding": "inplace",
        "label": "bool",
        "numberOfBytes": "1"
      },
      "t_mapping(t_address,t_bool)": {
        "encoding": "mapping",
        "key": "t_address",
        "label": "mapping(address => bool)",
        "numberOfBytes": "32",
        "value": "t_bool"
      },
      "t_mapping(t_address,t_mapping(t_address,t_bool))": {
        "encoding": "mapping",
        "key": "t_address",
        "label": "mapping(address => mapping(address => bool))",
        "numberOfBytes": "32",
        "value": "t_mapping(t_address,t_bool)"
      },
      "t_mapping(t_address,t_uint256)": {
        "encoding": "mapping",
        "key": "t_address",
        "label": "mapping(address => uint256)",
        "numberOfBytes": "32",
        "value": "t_uint256"
      },
      "t_mapping(t_uint256,t_mapping(t_address,t_uint256))": {
        "encoding": "mapping",
        "key": "t_uint256",
        "label": "mapping(uint256 => mapping(address => uint256))",
        "numberOfBytes": "32",
        "value": "t_mapping(t_address,t_uint256)"
      },
      "t_string_storage": {
        "encoding": "bytes",
        "label": "string",
        "numberOfBytes": "32"
      },
      "t_uint256": {
        "encoding": "inplace",
        "label": "uint256",
        "numberOfBytes": "32"
      }
    }
  }
}