{
  "address": "0xB7f8BC63BbcaD18155201308C8f3540b07f84F5e",
  "abi": [
    {
      "inputs": [
        {
          "internalType": "contract IERC1155",
          "name": "ERC1155Address",
          "type": "address"
        },
        {
          "internalType": "contract IToken",
          "name": "TokenAddress",
          "type": "address"
        }
      ],
      "stateMutability": "nonpayable",
      "type": "constructor"
    },
    {
      "inputs": [
        {
          "internalType": "address",
          "name": "",
          "type": "address"
        },
        {
          "internalType": "address",
          "name": "",
          "type": "address"
        },
        {
          "internalType": "uint256[]",
          "name": "",
          "type": "uint256[]"
        },
        {
          "internalType": "uint256[]",
          "name": "",
          "type": "uint256[]"
        },
        {
          "internalType": "bytes",
          "name": "",
          "type": "bytes"
        }
      ],
      "name": "onERC1155BatchReceived",
      "outputs": [
        {
          "internalType": "bytes4",
          "name": "",
          "type": "bytes4"
        }
      ],
      "stateMutability": "nonpayable",
      "type": "function"
    },
    {
      "inputs": [
        {
          "internalType": "address",
          "name": "from",
          "type": "address"
        },
        {
          "internalType": "address",
          "name": "",
          "type": "address"
        },
        {
          "internalType": "uint256",
          "name": "",
          "type": "uint256"
        },
        {
          "internalType": "uint256",
          "name": "",
          "type": "uint256"
        },
        {
          "internalType": "bytes",
          "name": "",
          "type": "bytes"
        }
      ],
      "name": "onERC1155Received",
      "outputs": [
        {
          "internalType": "bytes4",
          "name": "",
          "type": "bytes4"
        }
      ],
      "stateMutability": "nonpayable",
      "type": "function"
    },
    {
      "inputs": [
        {
          "internalType": "bytes4",
          "name": "interfaceId",
          "type": "bytes4"
        }
      ],
      "name": "supportsInterface",
      "outputs": [
        {
          "internalType": "bool",
          "name": "",
          "type": "bool"
        }
      ],
      "stateMutability": "view",
      "type": "function"
    },
    {
      "inputs": [
        {
          "internalType": "uint256",
          "name": "_itemId",
          "type": "uint256"
        },
        {
          "internalType": "uint256",
          "name": "_amount",
          "type": "uint256"
        },
        {
          "internalType": "address",
          "name": "_from",
          "type": "address"
        },
        {
          "internalType": "address",
          "name": "_to",
          "type": "address"
        }
      ],
      "name": "transferItems",
      "outputs": [],
      "stateMutability": "nonpayable",
      "type": "function"
    }
  ],
  "transactionHash": "0x9069f9dd24fb71a506401ac27b17b017db6db675b3aae93ca10cec752db7f795",
  "args": [
    "0x610178dA211FEF7D417bC0e6FeD39F05609AD788",
    "0x8A791620dd6260079BF849Dc5567aDC3F2FdC318"
  ],
  "numDeployments": 1,
  "solcInputHash": "91ab6bd00aa5412e16cf83f4f3a7883a",
  "bytecode": "0x60806040523480156200001157600080fd5b5060405162000e9038038062000e90833981810160405281019062000037919062000183565b816000806101000a81548173ffffffffffffffffffffffffffffffffffffffff021916908373ffffffffffffffffffffffffffffffffffffffff16021790555080600160006101000a81548173ffffffffffffffffffffffffffffffffffffffff021916908373ffffffffffffffffffffffffffffffffffffffff1602179055505050620001ca565b600080fd5b600073ffffffffffffffffffffffffffffffffffffffff82169050919050565b6000620000f282620000c5565b9050919050565b60006200010682620000e5565b9050919050565b6200011881620000f9565b81146200012457600080fd5b50565b60008151905062000138816200010d565b92915050565b60006200014b82620000e5565b9050919050565b6200015d816200013e565b81146200016957600080fd5b50565b6000815190506200017d8162000152565b92915050565b600080604083850312156200019d576200019c620000c0565b5b6000620001ad8582860162000127565b9250506020620001c0858286016200016c565b9150509250929050565b610cb680620001da6000396000f3fe608060405234801561001057600080fd5b506004361061004c5760003560e01c806301ffc9a71461005157806338577f0014610081578063bc197c811461009d578063f23a6e61146100cd575b600080fd5b61006b60048036038101906100669190610554565b6100fd565b604051610078919061059c565b60405180910390f35b61009b6004803603810190610096919061064b565b610177565b005b6100b760048036038101906100b291906108c0565b6102c4565b6040516100c4919061099e565b60405180910390f35b6100e760048036038101906100e291906109b9565b6102d9565b6040516100f4919061099e565b60405180910390f35b60007f4e2312e0000000000000000000000000000000000000000000000000000000007bffffffffffffffffffffffffffffffffffffffffffffffffffffffff1916827bffffffffffffffffffffffffffffffffffffffffffffffffffffffff19161480610170575061016f826103bc565b5b9050919050565b8260008054906101000a900473ffffffffffffffffffffffffffffffffffffffff1673ffffffffffffffffffffffffffffffffffffffff1662fdd58e84876040518363ffffffff1660e01b81526004016101d2929190610a6e565b60206040518083038186803b1580156101ea57600080fd5b505afa1580156101fe573d6000803e3d6000fd5b505050506040513d601f19601f820116820180604052508101906102229190610aac565b101561022d57600080fd5b60008054906101000a900473ffffffffffffffffffffffffffffffffffffffff1673ffffffffffffffffffffffffffffffffffffffff1663f242432a838387876040518563ffffffff1660e01b815260040161028c9493929190610b10565b600060405180830381600087803b1580156102a657600080fd5b505af11580156102ba573d6000803e3d6000fd5b5050505050505050565b600063bc197c8160e01b905095945050505050565b60006103196040518060400160405280600581526020017f68656c6c6f000000000000000000000000000000000000000000000000000000815250610426565b600160009054906101000a900473ffffffffffffffffffffffffffffffffffffffff1673ffffffffffffffffffffffffffffffffffffffff166340c10f198760016040518363ffffffff1660e01b8152600401610377929190610bad565b600060405180830381600087803b15801561039157600080fd5b505af11580156103a5573d6000803e3d6000fd5b5050505063f23a6e6160e01b905095945050505050565b60007f01ffc9a7000000000000000000000000000000000000000000000000000000007bffffffffffffffffffffffffffffffffffffffffffffffffffffffff1916827bffffffffffffffffffffffffffffffffffffffffffffffffffffffff1916149050919050565b6104bc8160405160240161043a9190610c5e565b6040516020818303038152906040527f41304fac000000000000000000000000000000000000000000000000000000007bffffffffffffffffffffffffffffffffffffffffffffffffffffffff19166020820180517bffffffffffffffffffffffffffffffffffffffffffffffffffffffff83818316178352505050506104bf565b50565b60008151905060006a636f6e736f6c652e6c6f679050602083016000808483855afa5050505050565b6000604051905090565b600080fd5b600080fd5b60007fffffffff0000000000000000000000000000000000000000000000000000000082169050919050565b610531816104fc565b811461053c57600080fd5b50565b60008135905061054e81610528565b92915050565b60006020828403121561056a576105696104f2565b5b60006105788482850161053f565b91505092915050565b60008115159050919050565b61059681610581565b82525050565b60006020820190506105b1600083018461058d565b92915050565b6000819050919050565b6105ca816105b7565b81146105d557600080fd5b50565b6000813590506105e7816105c1565b92915050565b600073ffffffffffffffffffffffffffffffffffffffff82169050919050565b6000610618826105ed565b9050919050565b6106288161060d565b811461063357600080fd5b50565b6000813590506106458161061f565b92915050565b60008060008060808587031215610665576106646104f2565b5b6000610673878288016105d8565b9450506020610684878288016105d8565b935050604061069587828801610636565b92505060606106a687828801610636565b91505092959194509250565b600080fd5b6000601f19601f8301169050919050565b7f4e487b7100000000000000000000000000000000000000000000000000000000600052604160045260246000fd5b610700826106b7565b810181811067ffffffffffffffff8211171561071f5761071e6106c8565b5b80604052505050565b60006107326104e8565b905061073e82826106f7565b919050565b600067ffffffffffffffff82111561075e5761075d6106c8565b5b602082029050602081019050919050565b600080fd5b600061078761078284610743565b610728565b905080838252602082019050602084028301858111156107aa576107a961076f565b5b835b818110156107d357806107bf88826105d8565b8452602084019350506020810190506107ac565b5050509392505050565b600082601f8301126107f2576107f16106b2565b5b8135610802848260208601610774565b91505092915050565b600080fd5b600067ffffffffffffffff82111561082b5761082a6106c8565b5b610834826106b7565b9050602081019050919050565b82818337600083830152505050565b600061086361085e84610810565b610728565b90508281526020810184848401111561087f5761087e61080b565b5b61088a848285610841565b509392505050565b600082601f8301126108a7576108a66106b2565b5b81356108b7848260208601610850565b91505092915050565b600080600080600060a086880312156108dc576108db6104f2565b5b60006108ea88828901610636565b95505060206108fb88828901610636565b945050604086013567ffffffffffffffff81111561091c5761091b6104f7565b5b610928888289016107dd565b935050606086013567ffffffffffffffff811115610949576109486104f7565b5b610955888289016107dd565b925050608086013567ffffffffffffffff811115610976576109756104f7565b5b61098288828901610892565b9150509295509295909350565b610998816104fc565b82525050565b60006020820190506109b3600083018461098f565b92915050565b600080600080600060a086880312156109d5576109d46104f2565b5b60006109e388828901610636565b95505060206109f488828901610636565b9450506040610a05888289016105d8565b9350506060610a16888289016105d8565b925050608086013567ffffffffffffffff811115610a3757610a366104f7565b5b610a4388828901610892565b9150509295509295909350565b610a598161060d565b82525050565b610a68816105b7565b82525050565b6000604082019050610a836000830185610a50565b610a906020830184610a5f565b9392505050565b600081519050610aa6816105c1565b92915050565b600060208284031215610ac257610ac16104f2565b5b6000610ad084828501610a97565b91505092915050565b600082825260208201905092915050565b50565b6000610afa600083610ad9565b9150610b0582610aea565b600082019050919050565b600060a082019050610b256000830187610a50565b610b326020830186610a50565b610b3f6040830185610a5f565b610b4c6060830184610a5f565b8181036080830152610b5d81610aed565b905095945050505050565b6000819050919050565b6000819050919050565b6000610b97610b92610b8d84610b68565b610b72565b6105b7565b9050919050565b610ba781610b7c565b82525050565b6000604082019050610bc26000830185610a50565b610bcf6020830184610b9e565b9392505050565b600081519050919050565b600082825260208201905092915050565b60005b83811015610c10578082015181840152602081019050610bf5565b83811115610c1f576000848401525b50505050565b6000610c3082610bd6565b610c3a8185610be1565b9350610c4a818560208601610bf2565b610c53816106b7565b840191505092915050565b60006020820190508181036000830152610c788184610c25565b90509291505056fea26469706673582212209a5061d02d9a0e0849e56b93dbf47c304dc9236ec73899b31ee21713dac738fa64736f6c63430008080033",
  "devdoc": {
    "kind": "dev",
    "methods": {
      "supportsInterface(bytes4)": {
        "details": "See {IERC165-supportsInterface}."
      }
    },
    "version": 1
  },
  "userdoc": {
    "kind": "user",
    "methods": {},
    "version": 1
  },
  "storageLayout": {
    "storage": [
      {
        "astId": 371,
        "contract": "contracts/Holder.sol:Holder",
        "label": "_IERC1155",
        "offset": 0,
        "slot": "0",
        "type": "t_contract(IERC1155)226"
      },
      {
        "astId": 374,
        "contract": "contracts/Holder.sol:Holder",
        "label": "_IToken",
        "offset": 0,
        "slot": "1",
        "type": "t_contract(IToken)518"
      }
    ],
    "types": {
      "t_contract(IERC1155)226": {
        "encoding": "inplace",
        "label": "contract IERC1155",
        "numberOfBytes": "20"
      },
      "t_contract(IToken)518": {
        "encoding": "inplace",
        "label": "contract IToken",
        "numberOfBytes": "20"
      }
    }
  }
}