{
  "address": "0x8A791620dd6260079BF849Dc5567aDC3F2FdC318",
  "abi": [
    {
      "inputs": [
        {
          "internalType": "string",
          "name": "name",
          "type": "string"
        },
        {
          "internalType": "string",
          "name": "symbol",
          "type": "string"
        },
        {
          "internalType": "address",
          "name": "initialAccount",
          "type": "address"
        },
        {
          "internalType": "uint256",
          "name": "initialBalance",
          "type": "uint256"
        }
      ],
      "stateMutability": "payable",
      "type": "constructor"
    },
    {
      "anonymous": false,
      "inputs": [
        {
          "indexed": true,
          "internalType": "address",
          "name": "owner",
          "type": "address"
        },
        {
          "indexed": true,
          "internalType": "address",
          "name": "spender",
          "type": "address"
        },
        {
          "indexed": false,
          "internalType": "uint256",
          "name": "value",
          "type": "uint256"
        }
      ],
      "name": "Approval",
      "type": "event"
    },
    {
      "anonymous": false,
      "inputs": [
        {
          "indexed": true,
          "internalType": "address",
          "name": "from",
          "type": "address"
        },
        {
          "indexed": true,
          "internalType": "address",
          "name": "to",
          "type": "address"
        },
        {
          "indexed": false,
          "internalType": "uint256",
          "name": "value",
          "type": "uint256"
        }
      ],
      "name": "Transfer",
      "type": "event"
    },
    {
      "inputs": [
        {
          "internalType": "address",
          "name": "owner",
          "type": "address"
        },
        {
          "internalType": "address",
          "name": "spender",
          "type": "address"
        }
      ],
      "name": "allowance",
      "outputs": [
        {
          "internalType": "uint256",
          "name": "",
          "type": "uint256"
        }
      ],
      "stateMutability": "view",
      "type": "function"
    },
    {
      "inputs": [
        {
          "internalType": "address",
          "name": "spender",
          "type": "address"
        },
        {
          "internalType": "uint256",
          "name": "amount",
          "type": "uint256"
        }
      ],
      "name": "approve",
      "outputs": [
        {
          "internalType": "bool",
          "name": "",
          "type": "bool"
        }
      ],
      "stateMutability": "nonpayable",
      "type": "function"
    },
    {
      "inputs": [
        {
          "internalType": "address",
          "name": "owner",
          "type": "address"
        },
        {
          "internalType": "address",
          "name": "spender",
          "type": "address"
        },
        {
          "internalType": "uint256",
          "name": "value",
          "type": "uint256"
        }
      ],
      "name": "approveInternal",
      "outputs": [],
      "stateMutability": "nonpayable",
      "type": "function"
    },
    {
      "inputs": [
        {
          "internalType": "address",
          "name": "account",
          "type": "address"
        }
      ],
      "name": "balanceOf",
      "outputs": [
        {
          "internalType": "uint256",
          "name": "",
          "type": "uint256"
        }
      ],
      "stateMutability": "view",
      "type": "function"
    },
    {
      "inputs": [
        {
          "internalType": "address",
          "name": "account",
          "type": "address"
        },
        {
          "internalType": "uint256",
          "name": "amount",
          "type": "uint256"
        }
      ],
      "name": "burn",
      "outputs": [],
      "stateMutability": "nonpayable",
      "type": "function"
    },
    {
      "inputs": [],
      "name": "decimals",
      "outputs": [
        {
          "internalType": "uint8",
          "name": "",
          "type": "uint8"
        }
      ],
      "stateMutability": "view",
      "type": "function"
    },
    {
      "inputs": [
        {
          "internalType": "address",
          "name": "spender",
          "type": "address"
        },
        {
          "internalType": "uint256",
          "name": "subtractedValue",
          "type": "uint256"
        }
      ],
      "name": "decreaseAllowance",
      "outputs": [
        {
          "internalType": "bool",
          "name": "",
          "type": "bool"
        }
      ],
      "stateMutability": "nonpayable",
      "type": "function"
    },
    {
      "inputs": [],
      "name": "getMintedAccount",
      "outputs": [
        {
          "internalType": "address",
          "name": "",
          "type": "address"
        }
      ],
      "stateMutability": "view",
      "type": "function"
    },
    {
      "inputs": [
        {
          "internalType": "address",
          "name": "spender",
          "type": "address"
        },
        {
          "internalType": "uint256",
          "name": "addedValue",
          "type": "uint256"
        }
      ],
      "name": "increaseAllowance",
      "outputs": [
        {
          "internalType": "bool",
          "name": "",
          "type": "bool"
        }
      ],
      "stateMutability": "nonpayable",
      "type": "function"
    },
    {
      "inputs": [
        {
          "internalType": "address",
          "name": "account",
          "type": "address"
        },
        {
          "internalType": "uint256",
          "name": "amount",
          "type": "uint256"
        }
      ],
      "name": "mint",
      "outputs": [],
      "stateMutability": "nonpayable",
      "type": "function"
    },
    {
      "inputs": [],
      "name": "name",
      "outputs": [
        {
          "internalType": "string",
          "name": "",
          "type": "string"
        }
      ],
      "stateMutability": "view",
      "type": "function"
    },
    {
      "inputs": [],
      "name": "symbol",
      "outputs": [
        {
          "internalType": "string",
          "name": "",
          "type": "string"
        }
      ],
      "stateMutability": "view",
      "type": "function"
    },
    {
      "inputs": [],
      "name": "totalSupply",
      "outputs": [
        {
          "internalType": "uint256",
          "name": "",
          "type": "uint256"
        }
      ],
      "stateMutability": "view",
      "type": "function"
    },
    {
      "inputs": [
        {
          "internalType": "address",
          "name": "to",
          "type": "address"
        },
        {
          "internalType": "uint256",
          "name": "amount",
          "type": "uint256"
        }
      ],
      "name": "transfer",
      "outputs": [
        {
          "internalType": "bool",
          "name": "",
          "type": "bool"
        }
      ],
      "stateMutability": "nonpayable",
      "type": "function"
    },
    {
      "inputs": [
        {
          "internalType": "address",
          "name": "from",
          "type": "address"
        },
        {
          "internalType": "address",
          "name": "to",
          "type": "address"
        },
        {
          "internalType": "uint256",
          "name": "amount",
          "type": "uint256"
        }
      ],
      "name": "transferFrom",
      "outputs": [
        {
          "internalType": "bool",
          "name": "",
          "type": "bool"
        }
      ],
      "stateMutability": "nonpayable",
      "type": "function"
    },
    {
      "inputs": [
        {
          "internalType": "address",
          "name": "from",
          "type": "address"
        },
        {
          "internalType": "address",
          "name": "to",
          "type": "address"
        },
        {
          "internalType": "uint256",
          "name": "value",
          "type": "uint256"
        }
      ],
      "name": "transferInternal",
      "outputs": [],
      "stateMutability": "nonpayable",
      "type": "function"
    }
  ],
  "transactionHash": "0x528256f2cd99505835667684f9e38e59ccf995183978986207349123f6624cdd",
  "args": [
    "TestToken",
    "TST",
    "0xf39Fd6e51aad88F6F4ce6aB8827279cffFb92266",
    0
  ],
  "numDeployments": 1,
  "solcInputHash": "acf0100ffa60347014827317fbc06774",
  "bytecode": "0x608060405260405162002166380380620021668339818101604052810190620000299190620004eb565b8383816003908051906020019062000043929190620001fe565b5080600490805190602001906200005c929190620001fe565b5050506200007182826200007b60201b60201c565b505050506200073d565b600073ffffffffffffffffffffffffffffffffffffffff168273ffffffffffffffffffffffffffffffffffffffff161415620000ee576040517f08c379a0000000000000000000000000000000000000000000000000000000008152600401620000e590620005fc565b60405180910390fd5b6200010260008383620001f460201b60201c565b80600260008282546200011691906200064d565b92505081905550806000808473ffffffffffffffffffffffffffffffffffffffff1673ffffffffffffffffffffffffffffffffffffffff16815260200190815260200160002060008282546200016d91906200064d565b925050819055508173ffffffffffffffffffffffffffffffffffffffff16600073ffffffffffffffffffffffffffffffffffffffff167fddf252ad1be2c89b69c2b068fc378daa952ba7f163c4a11628f55a4df523b3ef83604051620001d49190620006bb565b60405180910390a3620001f060008383620001f960201b60201c565b5050565b505050565b505050565b8280546200020c9062000707565b90600052602060002090601f0160209004810192826200023057600085556200027c565b82601f106200024b57805160ff19168380011785556200027c565b828001600101855582156200027c579182015b828111156200027b5782518255916020019190600101906200025e565b5b5090506200028b91906200028f565b5090565b5b80821115620002aa57600081600090555060010162000290565b5090565b6000604051905090565b600080fd5b600080fd5b600080fd5b600080fd5b6000601f19601f8301169050919050565b7f4e487b7100000000000000000000000000000000000000000000000000000000600052604160045260246000fd5b6200031782620002cc565b810181811067ffffffffffffffff82111715620003395762000338620002dd565b5b80604052505050565b60006200034e620002ae565b90506200035c82826200030c565b919050565b600067ffffffffffffffff8211156200037f576200037e620002dd565b5b6200038a82620002cc565b9050602081019050919050565b60005b83811015620003b75780820151818401526020810190506200039a565b83811115620003c7576000848401525b50505050565b6000620003e4620003de8462000361565b62000342565b905082815260208101848484011115620004035762000402620002c7565b5b6200041084828562000397565b509392505050565b600082601f83011262000430576200042f620002c2565b5b815162000442848260208601620003cd565b91505092915050565b600073ffffffffffffffffffffffffffffffffffffffff82169050919050565b600062000478826200044b565b9050919050565b6200048a816200046b565b81146200049657600080fd5b50565b600081519050620004aa816200047f565b92915050565b6000819050919050565b620004c581620004b0565b8114620004d157600080fd5b50565b600081519050620004e581620004ba565b92915050565b60008060008060808587031215620005085762000507620002b8565b5b600085015167ffffffffffffffff811115620005295762000528620002bd565b5b620005378782880162000418565b945050602085015167ffffffffffffffff8111156200055b576200055a620002bd565b5b620005698782880162000418565b93505060406200057c8782880162000499565b92505060606200058f87828801620004d4565b91505092959194509250565b600082825260208201905092915050565b7f45524332303a206d696e7420746f20746865207a65726f206164647265737300600082015250565b6000620005e4601f836200059b565b9150620005f182620005ac565b602082019050919050565b600060208201905081810360008301526200061781620005d5565b9050919050565b7f4e487b7100000000000000000000000000000000000000000000000000000000600052601160045260246000fd5b60006200065a82620004b0565b91506200066783620004b0565b9250827fffffffffffffffffffffffffffffffffffffffffffffffffffffffffffffffff038211156200069f576200069e6200061e565b5b828201905092915050565b620006b581620004b0565b82525050565b6000602082019050620006d26000830184620006aa565b92915050565b7f4e487b7100000000000000000000000000000000000000000000000000000000600052602260045260246000fd5b600060028204905060018216806200072057607f821691505b60208210811415620007375762000736620006d8565b5b50919050565b611a19806200074d6000396000f3fe608060405234801561001057600080fd5b50600436106101005760003560e01c806356189cb4116100975780639dc29fac116100665780639dc29fac146102af578063a457c2d7146102cb578063a9059cbb146102fb578063dd62ed3e1461032b57610100565b806356189cb41461022757806370a082311461024357806384952b261461027357806395d89b411461029157610100565b806323b872dd116100d357806323b872dd1461018d578063313ce567146101bd57806339509351146101db57806340c10f191461020b57610100565b806306fdde0314610105578063095ea7b31461012357806318160ddd14610153578063222f5be014610171575b600080fd5b61010d61035b565b60405161011a91906110e5565b60405180910390f35b61013d600480360381019061013891906111a0565b6103ed565b60405161014a91906111fb565b60405180910390f35b61015b610410565b6040516101689190611225565b60405180910390f35b61018b60048036038101906101869190611240565b61041a565b005b6101a760048036038101906101a29190611240565b61042a565b6040516101b491906111fb565b60405180910390f35b6101c5610459565b6040516101d291906112af565b60405180910390f35b6101f560048036038101906101f091906111a0565b610462565b60405161020291906111fb565b60405180910390f35b610225600480360381019061022091906111a0565b610499565b005b610241600480360381019061023c9190611240565b610526565b005b61025d600480360381019061025891906112ca565b610536565b60405161026a9190611225565b60405180910390f35b61027b61057e565b6040516102889190611306565b60405180910390f35b6102996105a8565b6040516102a691906110e5565b60405180910390f35b6102c960048036038101906102c491906111a0565b61063a565b005b6102e560048036038101906102e091906111a0565b610648565b6040516102f291906111fb565b60405180910390f35b610315600480360381019061031091906111a0565b6106bf565b60405161032291906111fb565b60405180910390f35b61034560048036038101906103409190611321565b6106e2565b6040516103529190611225565b60405180910390f35b60606003805461036a90611390565b80601f016020809104026020016040519081016040528092919081815260200182805461039690611390565b80156103e35780601f106103b8576101008083540402835291602001916103e3565b820191906000526020600020905b8154815290600101906020018083116103c657829003601f168201915b5050505050905090565b6000806103f8610769565b9050610405818585610771565b600191505092915050565b6000600254905090565b61042583838361093c565b505050565b600080610435610769565b9050610442858285610bbd565b61044d85858561093c565b60019150509392505050565b60006012905090565b60008061046d610769565b905061048e81858561047f85896106e2565b61048991906113f1565b610771565b600191505092915050565b6104d76040518060400160405280601881526020017f4d696e74696e6720746f6b656e20746f206163636f756e740000000000000000815250610c49565b81600560006101000a81548173ffffffffffffffffffffffffffffffffffffffff021916908373ffffffffffffffffffffffffffffffffffffffff1602179055506105228282610ce2565b5050565b610531838383610771565b505050565b60008060008373ffffffffffffffffffffffffffffffffffffffff1673ffffffffffffffffffffffffffffffffffffffff168152602001908152602001600020549050919050565b6000600560009054906101000a900473ffffffffffffffffffffffffffffffffffffffff16905090565b6060600480546105b790611390565b80601f01602080910402602001604051908101604052809291908181526020018280546105e390611390565b80156106305780601f1061060557610100808354040283529160200191610630565b820191906000526020600020905b81548152906001019060200180831161061357829003601f168201915b5050505050905090565b6106448282610e42565b5050565b600080610653610769565b9050600061066182866106e2565b9050838110156106a6576040517f08c379a000000000000000000000000000000000000000000000000000000000815260040161069d906114b9565b60405180910390fd5b6106b38286868403610771565b60019250505092915050565b6000806106ca610769565b90506106d781858561093c565b600191505092915050565b6000600160008473ffffffffffffffffffffffffffffffffffffffff1673ffffffffffffffffffffffffffffffffffffffff16815260200190815260200160002060008373ffffffffffffffffffffffffffffffffffffffff1673ffffffffffffffffffffffffffffffffffffffff16815260200190815260200160002054905092915050565b600033905090565b600073ffffffffffffffffffffffffffffffffffffffff168373ffffffffffffffffffffffffffffffffffffffff1614156107e1576040517f08c379a00000000000000000000000000000000000000000000000000000000081526004016107d89061154b565b60405180910390fd5b600073ffffffffffffffffffffffffffffffffffffffff168273ffffffffffffffffffffffffffffffffffffffff161415610851576040517f08c379a0000000000000000000000000000000000000000000000000000000008152600401610848906115dd565b60405180910390fd5b80600160008573ffffffffffffffffffffffffffffffffffffffff1673ffffffffffffffffffffffffffffffffffffffff16815260200190815260200160002060008473ffffffffffffffffffffffffffffffffffffffff1673ffffffffffffffffffffffffffffffffffffffff168152602001908152602001600020819055508173ffffffffffffffffffffffffffffffffffffffff168373ffffffffffffffffffffffffffffffffffffffff167f8c5be1e5ebec7d5bd14f71427d1e84f3dd0314c0f7b2291e5b200ac8c7c3b9258360405161092f9190611225565b60405180910390a3505050565b600073ffffffffffffffffffffffffffffffffffffffff168373ffffffffffffffffffffffffffffffffffffffff1614156109ac576040517f08c379a00000000000000000000000000000000000000000000000000000000081526004016109a39061166f565b60405180910390fd5b600073ffffffffffffffffffffffffffffffffffffffff168273ffffffffffffffffffffffffffffffffffffffff161415610a1c576040517f08c379a0000000000000000000000000000000000000000000000000000000008152600401610a1390611701565b60405180910390fd5b610a27838383611019565b60008060008573ffffffffffffffffffffffffffffffffffffffff1673ffffffffffffffffffffffffffffffffffffffff16815260200190815260200160002054905081811015610aad576040517f08c379a0000000000000000000000000000000000000000000000000000000008152600401610aa490611793565b60405180910390fd5b8181036000808673ffffffffffffffffffffffffffffffffffffffff1673ffffffffffffffffffffffffffffffffffffffff16815260200190815260200160002081905550816000808573ffffffffffffffffffffffffffffffffffffffff1673ffffffffffffffffffffffffffffffffffffffff1681526020019081526020016000206000828254610b4091906113f1565b925050819055508273ffffffffffffffffffffffffffffffffffffffff168473ffffffffffffffffffffffffffffffffffffffff167fddf252ad1be2c89b69c2b068fc378daa952ba7f163c4a11628f55a4df523b3ef84604051610ba49190611225565b60405180910390a3610bb784848461101e565b50505050565b6000610bc984846106e2565b90507fffffffffffffffffffffffffffffffffffffffffffffffffffffffffffffffff8114610c435781811015610c35576040517f08c379a0000000000000000000000000000000000000000000000000000000008152600401610c2c906117ff565b60405180910390fd5b610c428484848403610771565b5b50505050565b610cdf81604051602401610c5d91906110e5565b6040516020818303038152906040527f41304fac000000000000000000000000000000000000000000000000000000007bffffffffffffffffffffffffffffffffffffffffffffffffffffffff19166020820180517bffffffffffffffffffffffffffffffffffffffffffffffffffffffff8381831617835250505050611023565b50565b600073ffffffffffffffffffffffffffffffffffffffff168273ffffffffffffffffffffffffffffffffffffffff161415610d52576040517f08c379a0000000000000000000000000000000000000000000000000000000008152600401610d499061186b565b60405180910390fd5b610d5e60008383611019565b8060026000828254610d7091906113f1565b92505081905550806000808473ffffffffffffffffffffffffffffffffffffffff1673ffffffffffffffffffffffffffffffffffffffff1681526020019081526020016000206000828254610dc591906113f1565b925050819055508173ffffffffffffffffffffffffffffffffffffffff16600073ffffffffffffffffffffffffffffffffffffffff167fddf252ad1be2c89b69c2b068fc378daa952ba7f163c4a11628f55a4df523b3ef83604051610e2a9190611225565b60405180910390a3610e3e6000838361101e565b5050565b600073ffffffffffffffffffffffffffffffffffffffff168273ffffffffffffffffffffffffffffffffffffffff161415610eb2576040517f08c379a0000000000000000000000000000000000000000000000000000000008152600401610ea9906118fd565b60405180910390fd5b610ebe82600083611019565b60008060008473ffffffffffffffffffffffffffffffffffffffff1673ffffffffffffffffffffffffffffffffffffffff16815260200190815260200160002054905081811015610f44576040517f08c379a0000000000000000000000000000000000000000000000000000000008152600401610f3b9061198f565b60405180910390fd5b8181036000808573ffffffffffffffffffffffffffffffffffffffff1673ffffffffffffffffffffffffffffffffffffffff168152602001908152602001600020819055508160026000828254610f9b91906119af565b92505081905550600073ffffffffffffffffffffffffffffffffffffffff168373ffffffffffffffffffffffffffffffffffffffff167fddf252ad1be2c89b69c2b068fc378daa952ba7f163c4a11628f55a4df523b3ef846040516110009190611225565b60405180910390a36110148360008461101e565b505050565b505050565b505050565b60008151905060006a636f6e736f6c652e6c6f679050602083016000808483855afa5050505050565b600081519050919050565b600082825260208201905092915050565b60005b8381101561108657808201518184015260208101905061106b565b83811115611095576000848401525b50505050565b6000601f19601f8301169050919050565b60006110b78261104c565b6110c18185611057565b93506110d1818560208601611068565b6110da8161109b565b840191505092915050565b600060208201905081810360008301526110ff81846110ac565b905092915050565b600080fd5b600073ffffffffffffffffffffffffffffffffffffffff82169050919050565b60006111378261110c565b9050919050565b6111478161112c565b811461115257600080fd5b50565b6000813590506111648161113e565b92915050565b6000819050919050565b61117d8161116a565b811461118857600080fd5b50565b60008135905061119a81611174565b92915050565b600080604083850312156111b7576111b6611107565b5b60006111c585828601611155565b92505060206111d68582860161118b565b9150509250929050565b60008115159050919050565b6111f5816111e0565b82525050565b600060208201905061121060008301846111ec565b92915050565b61121f8161116a565b82525050565b600060208201905061123a6000830184611216565b92915050565b60008060006060848603121561125957611258611107565b5b600061126786828701611155565b935050602061127886828701611155565b92505060406112898682870161118b565b9150509250925092565b600060ff82169050919050565b6112a981611293565b82525050565b60006020820190506112c460008301846112a0565b92915050565b6000602082840312156112e0576112df611107565b5b60006112ee84828501611155565b91505092915050565b6113008161112c565b82525050565b600060208201905061131b60008301846112f7565b92915050565b6000806040838503121561133857611337611107565b5b600061134685828601611155565b925050602061135785828601611155565b9150509250929050565b7f4e487b7100000000000000000000000000000000000000000000000000000000600052602260045260246000fd5b600060028204905060018216806113a857607f821691505b602082108114156113bc576113bb611361565b5b50919050565b7f4e487b7100000000000000000000000000000000000000000000000000000000600052601160045260246000fd5b60006113fc8261116a565b91506114078361116a565b9250827fffffffffffffffffffffffffffffffffffffffffffffffffffffffffffffffff0382111561143c5761143b6113c2565b5b828201905092915050565b7f45524332303a2064656372656173656420616c6c6f77616e63652062656c6f7760008201527f207a65726f000000000000000000000000000000000000000000000000000000602082015250565b60006114a3602583611057565b91506114ae82611447565b604082019050919050565b600060208201905081810360008301526114d281611496565b9050919050565b7f45524332303a20617070726f76652066726f6d20746865207a65726f2061646460008201527f7265737300000000000000000000000000000000000000000000000000000000602082015250565b6000611535602483611057565b9150611540826114d9565b604082019050919050565b6000602082019050818103600083015261156481611528565b9050919050565b7f45524332303a20617070726f766520746f20746865207a65726f20616464726560008201527f7373000000000000000000000000000000000000000000000000000000000000602082015250565b60006115c7602283611057565b91506115d28261156b565b604082019050919050565b600060208201905081810360008301526115f6816115ba565b9050919050565b7f45524332303a207472616e736665722066726f6d20746865207a65726f20616460008201527f6472657373000000000000000000000000000000000000000000000000000000602082015250565b6000611659602583611057565b9150611664826115fd565b604082019050919050565b600060208201905081810360008301526116888161164c565b9050919050565b7f45524332303a207472616e7366657220746f20746865207a65726f206164647260008201527f6573730000000000000000000000000000000000000000000000000000000000602082015250565b60006116eb602383611057565b91506116f68261168f565b604082019050919050565b6000602082019050818103600083015261171a816116de565b9050919050565b7f45524332303a207472616e7366657220616d6f756e742065786365656473206260008201527f616c616e63650000000000000000000000000000000000000000000000000000602082015250565b600061177d602683611057565b915061178882611721565b604082019050919050565b600060208201905081810360008301526117ac81611770565b9050919050565b7f45524332303a20696e73756666696369656e7420616c6c6f77616e6365000000600082015250565b60006117e9601d83611057565b91506117f4826117b3565b602082019050919050565b60006020820190508181036000830152611818816117dc565b9050919050565b7f45524332303a206d696e7420746f20746865207a65726f206164647265737300600082015250565b6000611855601f83611057565b91506118608261181f565b602082019050919050565b6000602082019050818103600083015261188481611848565b9050919050565b7f45524332303a206275726e2066726f6d20746865207a65726f2061646472657360008201527f7300000000000000000000000000000000000000000000000000000000000000602082015250565b60006118e7602183611057565b91506118f28261188b565b604082019050919050565b60006020820190508181036000830152611916816118da565b9050919050565b7f45524332303a206275726e20616d6f756e7420657863656564732062616c616e60008201527f6365000000000000000000000000000000000000000000000000000000000000602082015250565b6000611979602283611057565b91506119848261191d565b604082019050919050565b600060208201905081810360008301526119a88161196c565b9050919050565b60006119ba8261116a565b91506119c58361116a565b9250828210156119d8576119d76113c2565b5b82820390509291505056fea2646970667358221220812d58d113ce7772f1df366de56bd110469cf51348e9a9186a5886d37861a99564736f6c63430008080033",
  "devdoc": {
    "kind": "dev",
    "methods": {
      "allowance(address,address)": {
        "details": "See {IERC20-allowance}."
      },
      "approve(address,uint256)": {
        "details": "See {IERC20-approve}. NOTE: If `amount` is the maximum `uint256`, the allowance is not updated on `transferFrom`. This is semantically equivalent to an infinite approval. Requirements: - `spender` cannot be the zero address."
      },
      "balanceOf(address)": {
        "details": "See {IERC20-balanceOf}."
      },
      "decimals()": {
        "details": "Returns the number of decimals used to get its user representation. For example, if `decimals` equals `2`, a balance of `505` tokens should be displayed to a user as `5.05` (`505 / 10 ** 2`). Tokens usually opt for a value of 18, imitating the relationship between Ether and Wei. This is the value {ERC20} uses, unless this function is overridden; NOTE: This information is only used for _display_ purposes: it in no way affects any of the arithmetic of the contract, including {IERC20-balanceOf} and {IERC20-transfer}."
      },
      "decreaseAllowance(address,uint256)": {
        "details": "Atomically decreases the allowance granted to `spender` by the caller. This is an alternative to {approve} that can be used as a mitigation for problems described in {IERC20-approve}. Emits an {Approval} event indicating the updated allowance. Requirements: - `spender` cannot be the zero address. - `spender` must have allowance for the caller of at least `subtractedValue`."
      },
      "increaseAllowance(address,uint256)": {
        "details": "Atomically increases the allowance granted to `spender` by the caller. This is an alternative to {approve} that can be used as a mitigation for problems described in {IERC20-approve}. Emits an {Approval} event indicating the updated allowance. Requirements: - `spender` cannot be the zero address."
      },
      "name()": {
        "details": "Returns the name of the token."
      },
      "symbol()": {
        "details": "Returns the symbol of the token, usually a shorter version of the name."
      },
      "totalSupply()": {
        "details": "See {IERC20-totalSupply}."
      },
      "transfer(address,uint256)": {
        "details": "See {IERC20-transfer}. Requirements: - `to` cannot be the zero address. - the caller must have a balance of at least `amount`."
      },
      "transferFrom(address,address,uint256)": {
        "details": "See {IERC20-transferFrom}. Emits an {Approval} event indicating the updated allowance. This is not required by the EIP. See the note at the beginning of {ERC20}. NOTE: Does not update the allowance if the current allowance is the maximum `uint256`. Requirements: - `from` and `to` cannot be the zero address. - `from` must have a balance of at least `amount`. - the caller must have allowance for ``from``'s tokens of at least `amount`."
      }
    },
    "version": 1
  },
  "userdoc": {
    "kind": "user",
    "methods": {},
    "version": 1
  },
  "storageLayout": {
    "storage": [
      {
        "astId": 120,
        "contract": "contracts/Token.sol:Token",
        "label": "_balances",
        "offset": 0,
        "slot": "0",
        "type": "t_mapping(t_address,t_uint256)"
      },
      {
        "astId": 126,
        "contract": "contracts/Token.sol:Token",
        "label": "_allowances",
        "offset": 0,
        "slot": "1",
        "type": "t_mapping(t_address,t_mapping(t_address,t_uint256))"
      },
      {
        "astId": 128,
        "contract": "contracts/Token.sol:Token",
        "label": "_totalSupply",
        "offset": 0,
        "slot": "2",
        "type": "t_uint256"
      },
      {
        "astId": 130,
        "contract": "contracts/Token.sol:Token",
        "label": "_name",
        "offset": 0,
        "slot": "3",
        "type": "t_string_storage"
      },
      {
        "astId": 132,
        "contract": "contracts/Token.sol:Token",
        "label": "_symbol",
        "offset": 0,
        "slot": "4",
        "type": "t_string_storage"
      },
      {
        "astId": 861,
        "contract": "contracts/Token.sol:Token",
        "label": "mintedaccount",
        "offset": 0,
        "slot": "5",
        "type": "t_address"
      }
    ],
    "types": {
      "t_address": {
        "encoding": "inplace",
        "label": "address",
        "numberOfBytes": "20"
      },
      "t_mapping(t_address,t_mapping(t_address,t_uint256))": {
        "encoding": "mapping",
        "key": "t_address",
        "label": "mapping(address => mapping(address => uint256))",
        "numberOfBytes": "32",
        "value": "t_mapping(t_address,t_uint256)"
      },
      "t_mapping(t_address,t_uint256)": {
        "encoding": "mapping",
        "key": "t_address",
        "label": "mapping(address => uint256)",
        "numberOfBytes": "32",
        "value": "t_uint256"
      },
      "t_string_storage": {
        "encoding": "bytes",
        "label": "string",
        "numberOfBytes": "32"
      },
      "t_uint256": {
        "encoding": "inplace",
        "label": "uint256",
        "numberOfBytes": "32"
      }
    }
  }
}